:10000000F0C000000C9447170C946E1712C100004A
:1000100010C100000EC100000CC100000C94CA1BEE
:1000200008C100000C94711C04C100000C94152838
:1000300000C10000FEC00000FCC00000FAC00000CB
:100040000C949517F6C000000C94271A0C94591ABA
:10005000F0C00000EEC00000ECC00000EAC00000EC
:100060000C94442CE6C000007A243A26A426A72645
:100070007E25B12539245A241D24812670267D260B
:10008000A726A726A72608240000000800020100D2
:100090000003040700000000000000000102040843
:1000A00010204080010204081020010204081020E2
:1000B000040404040404040402020202020203030E
:1000C0000303030300000000250028002B000000AC
:1000D0000000240027002A0002001D3A2774694E00
:1000E00053E8F5D2CF9C81A6BBCDD0F7EAB9A48363
:1000F0009E25381F02514C6B76879ABDA0F3EEC93E
:10010000D46F7255481B06213C4A57706D3E23043C
:1001100019A2BF9885D6CBECF1130E2934677A5D0E
:1001200040FBE6C1DC8F92B5A8DEC3E4F9AAB79024
:100130008D362B0C11425F78659489AEB3E0FDDA01
:10014000C77C61465B0815322F5944637E2D3017FA
:100150000AB1AC8B96C5D8FFE2263B1C01524F6812
:1001600075CED3F4E9BAA7809DEBF6D1CC9F82A5DA
:10017000B8031E3924776A4D50A1BC9B86D5C8EFC1
:10018000F24954736E3D20071A6C71564B180522C4
:100190003F8499BEA3F0EDCAD735280F12415C7B8E
:1001A00066DDC0E7FAA9B4938EF8E5C2DF8C91B69C
:1001B000AB100D2A3764795E43B2AF8895C6DBFC7D
:1001C000E15A47607D2E3314097F6245580B163182
:1001D0002C978AADB0E3FED9C40030017E1AEA1A2A
:1001E0002D2B11241FBECFEFD8E0DEBFCDBF13E013
:1001F000A0E0B1E0ECE5F6E602C005900D92A8366D
:10020000B107D9F727E0A8E6B3E001C01D92A732F5
:10021000B207E1F710E0C1EFD0E004C02197FE0182
:100220000E949931CD3ED107C9F70E94C92D0C9487
:100230002C33E6CE70E090E09C01220F331F820F3A
:10024000931F88599C4F0C94742970E090E09C0196
:10025000220F331F820F931F88599C4F0C94AE2995
:1002600088E693E00C94D628CF92DF92EF92FF922B
:100270006B017C01672B682B692B69F480910A0163
:10028000811109C080910C0190910D010E94A22A58
:1002900081E080930A01C601880F991F880F991F7A
:1002A000865F9E4FFF90EF90DF90CF90089500976C
:1002B00081F0FC012181211104C040EA56E861E08F
:1002C00070E0FC01828193810E94AC2A80E090E082
:1002D000089588E090E008954F925F926F927F9228
:1002E0008F929F92AF92BF92CF92DF92EF92FF9246
:1002F0000F931F93CF93DF93EC015A01280139012B
:10030000892B09F441C0402F8A819B810E942B2BAD
:100310008A819B81DC01ED91FC910480F581E02DC7
:100320000995892B29F04501C12CD12C760120C0DB
:10033000F501108211821282138226C0C414D504E2
:10034000E604F70421F18A819B81DC01ED91FC91A7
:100350000680F781E02D09958F3FBFEF9B0741F3A2
:10036000FFEFCF1ADF0AEF0AFF0AD4018D934D0188
:100370008A819B81DC01ED91FC910480F581E02D67
:100380000995892B21F0DACF88E090E002C080E067
:1003900090E0DF91CF911F910F91FF90EF90DF9050
:1003A000CF90BF90AF909F908F907F906F905F9015
:1003B0004F9008958F929F92AF92BF92CF92DF920B
:1003C000EF920F931F93CF93DF93EC016A014801E3
:1003D0005901892BE9F08A819B810E94AF2A8A8189
:1003E0009B81DC01ED91FC910280F381E02DA40161
:1003F000B60109958A819B81EE2011F060E001C071
:1004000061E00E94B92A882331F08250823030F0B6
:1004100088E090E005C080E090E002C084E090E0D9
:10042000DF91CF911F910F91EF90DF90CF90BF9010
:10043000AF909F908F900895009729F0FC018281E2
:1004400093810C94AB2A0895662311F061E001C0FA
:1004500060E00C94A118662311F061E001C060E037
:100460000C94DD182F923F924F925F926F927F9281
:100470008F929F92AF92BF92CF92DF92EF92FF92B4
:100480000F931F93CF93DF9300D000D000D0CDB750
:10049000DEB74B015C015E834D8319016701780172
:1004A000DA014D905D906D907C90A30192010E94C5
:1004B000DB2E1816FCF0A3019201C501B4010E94C5
:1004C000632E6B017C01A3019201ED81FE816481A9
:1004D0007581868197810E94632E9B01AC01C701C3
:1004E000B6010E94DF2E6B017C0119821A821B82E9
:1004F0001C8299C08601000F111F000F111F2D8152
:100500003E81020F131FD8014D905D906D907C903D
:10051000A3019201C501B4010E94DB2E87FF5DC0DB
:1005200026013701769467945794479419821A826A
:100530001B821C82D701C60129813A814B815C81D3
:10054000821B930BA40BB50B0297A105B10538F1E3
:10055000F201EE0FFF1FEE0FFF1F2D813E81E20F14
:10056000F31F2081318142815381C501B4010E9472
:10057000DB2E87FD05C049825A826B827C8202C0D5
:100580007301620149805A806B807C804C0C5D1C39
:100590006E1C7F1C7694679457944794CBCFC90107
:1005A000880F991F880F991F0D811E81080F191F31
:1005B000D801CD90DD90ED90FC90A7019601C5018A
:1005C000B4010E94632E4B015C01A7019601F80162
:1005D00064817581868197811CC0A7019601215095
:1005E00031094109510929833A834B835C83F8011E
:1005F0003497C080D180E280F380A7019601C501C5
:10060000B4010E94632E4B015C01A7019601C30156
:10061000B2010E94632E9B01AC01C501B4010E948E
:10062000DF2E6B017C0189819A810196880F991FC9
:10063000880F991FD101A80FB91FFD013497808041
:100640009180A280B380A50194016D917D918D91DF
:100650009C910E94632EA70196010E94CA30A501B9
:1006600094010E94642E26960FB6F894DEBF0FBE4A
:10067000CDBFDF91CF911F910F91FF90EF90DF9051
:10068000CF90BF90AF909F908F907F906F905F9032
:100690004F903F902F900895FC0191E08091EF06DC
:1006A000811190E0928308954F925F926F927F92B2
:1006B0008F929F92AF92BF92CF92DF92EF92FF9272
:1006C000CF93DF9300D000D0CDB7DEB74B015C01F4
:1006D00069017A012DD6882349F06091170770913E
:1006E00018078091190790911A078AC0C501B401B3
:1006F000DCD58111F2CFC701B6011AD68111EDCF39
:10070000C701B601D2D58111E8CF20E030E0A901C0
:10071000C701B6010E94DB2E87FF07C0C701B601E3
:100720000E94C82E2B013C0110C0C701B6010E94D7
:10073000B02F2B013C0120E030E0A901C701B60138
:100740000E94DB2E882309F443C0A3019201C70154
:10075000B6010E94DB2E8823D9F1A7019601C501BD
:10076000B4010E94DF2E2B013C01E89477F820E0D1
:1007700030E040E05FE3C301B2010E94642E0E94BA
:10078000B02F9B01AC01C301B2010E94632E9B01FB
:10079000AC015F7729833A834B835C8320E030E0B0
:1007A00040E054E3C301B2010E94CA309B01AC0196
:1007B00069817A818B819C810E94DB2E181644F01E
:1007C00020E030E0A901C501B4010E94CA3018C080
:1007D000A7019601C501B4010F900F900F900F90E3
:1007E000DF91CF91FF90EF90DF90CF90BF90AF90CF
:1007F0009F908F907F906F905F904F900C94CA2F36
:100800000F900F900F900F90DF91CF91FF90EF908E
:10081000DF90CF90BF90AF909F908F907F906F9020
:100820005F904F900895CF92DF92EF92FF926B010D
:100830007C019F7720E030E040E859E50E94DB2E04
:1008400087FF3AC020E030E040E05FE3C701B60137
:100850000E94C63087FD0EC020E030E040E05FE33C
:10086000C701B6010E94642EFF90EF90DF90CF90F9
:100870000C94B02F20E030E040E05FEBC701B60100
:100880000E94C630181654F420E030E0A901C701D8
:10089000B6010E94CA306B017C010EC020E030E03E
:1008A00040E05FE3C701B6010E94632EFF90EF9026
:1008B000DF90CF900C94C82EC701B601FF90EF9047
:1008C000DF90CF9008954F925F926F927F928F92B8
:1008D0009F92AF92BF92CF92DF92EF92FF920F93CF
:1008E0001F93CF93DF93CDB7DEB765970FB6F8941C
:1008F000DEBF0FBECDBF8091EF068F5F8A3018F448
:100900008093EF0602C01092EF0688E0E6EBF1E07C
:10091000DE011A9601900D928A95E1F789898A87FE
:1009200088898B878F858C878E858D878A859B8527
:10093000AC85BD858A8B9B8BAC8BBD8BCE014296E3
:1009400028E0FC01DE011A9601900D922A95E1F74C
:100950002BE62983DE011A96FE0132962D91219312
:10096000A817B907D9F7C12CE12C09E010E020E065
:1009700030E0AE014F5F5F4F68E670E0809128067F
:100980009091290617DD8090480690904906A09026
:100990004A06B0904B06C501B4010E94752F2B0189
:1009A0003C012091C2013091C3014091C40150919A
:1009B000C5010E94DB2E87FF0BC0B7FC09C0C090A9
:1009C000BA01D090BB01E090BC01F090BD0103C022
:1009D000C12CD12C7601CA8ADB8AEC8AFD8A20E000
:1009E00030E040E85FE36091BE017091BF0180910B
:1009F000C0019091C1010E94632E9B01AC01C30113
:100A0000B2010E94C63087FD09C0109248061092BC
:100A1000490610924A0610924B060DC08FEF881AB5
:100A2000980AA80AB80A8092480690924906A092AD
:100A30004A06B0924B0620E030E040E853E4C7019C
:100A4000B6010E94DB2E87FF0EC020E030E0A90136
:100A5000C701B6010E94C63087FD07C0C701B601B5
:100A60000E94472F03C06FEF01C060E08DE0F3DC10
:100A70002091CA013091CB014091CC015091CD0120
:100A8000E091F706F091F80660817181828193818F
:100A90000BDE12E0E12EF12C00E010E026EA31E05E
:100AA0004EEC51E0DFDC6B017C0160930507709335
:100AB0000607809307079093080720E030E0A9011C
:100AC0000E94DB2E87FF02C060E02CC020E030E0F7
:100AD00044E353E4C701B6010E94C6301816FCF087
:100AE000C701B601A0DE6B017C016A8B7B8B8C8B0E
:100AF0009D8B20E030E040E853E40E94DB2E87FF2E
:100B000010C020E030E0A901C701B6010E94C63044
:100B100087FDDACFC701B6010E94472F03C064EBFF
:100B200001C06FEF80E091DB83E090E00E94F4165B
:100B3000E091F706F091F80640815181628173815E
:100B400081E090E00E94F0164090F0065090F1068F
:100B50006090F2067090F30620E030E040E85FEB32
:100B6000C301B2010E94DB2EE090F706F090F80678
:100B7000882319F1F70180809180A280B380A501BC
:100B80009401C301B2010E94632E2B013C0120E0BD
:100B900030E040E054E3C501B4010E94CA309B013B
:100BA000AC01C301B2010E94C630181634F083EEC6
:100BB00091E090934D0680934C068091F606882331
:100BC00031F083EE91E090934D0680934C06809136
:100BD000DD069091DE06A091DF06B091E006BC0133
:100BE000CD016F5F7F4F8F4F9F4F6093DD067093F6
:100BF000DE068093DF069093E0060E94732F20911B
:100C0000E1063091E2064091E3065091E4060E942D
:100C1000CA30F70160837183828393838091E506F4
:100C20009091E606A091E706B091E8060196A11D15
:100C3000B11D8093E5069093E606A093E706B09376
:100C4000E80665960FB6F894DEBF0FBECDBFDF9104
:100C5000CF911F910F91FF90EF90DF90CF90BF90B9
:100C6000AF909F908F907F906F905F904F9008957E
:100C7000CF92DF92EF92FF920F931F93CF93DF9368
:100C800000D01F92CDB7DEB7C090B201D090B301B3
:100C9000E090B401F090B501A701960160910A06B9
:100CA00070910B0680910C0690910D060E94DB2E30
:100CB000882341F0C0920A06D0920B06E0920C06FF
:100CC000F0920D068BE38B83C12CEE24E39401E0BC
:100CD00010E020E030E0AE014D5F5F4F68E670E06D
:100CE000809108069091090665DB8B83811118C0FD
:100CF000CC24C394E12C02E010E020E030E0AE010F
:100D00004F5F5F4F68E670E080910806909109069A
:100D1000E3DA9A8189819093090780930A0704C0D6
:100D200010920A07109209076091E9067091EA068D
:100D30008091EB069091EC060E94732F2DEC3CEC19
:100D40004CEC5DE30E94CA30AB01BC0182E090E054
:100D50000E94F0168091E9069091EA06A091EB06B8
:100D6000B091EC060196A11DB11D8093E906909308
:100D7000EA06A093EB06B093EC060F900F900F904D
:100D8000DF91CF911F910F91FF90EF90DF90CF9067
:100D900008952F923F924F925F926F927F928F921F
:100DA0009F92AF92BF92CF92DF92EF92FF920F93FA
:100DB0001F93CF93DF9300D000D0CDB7DEB784E090
:100DC00090E03CD2ECE4F6E089EBDF011D928A95DD
:100DD000E9F784EF96E09783868347EF56E05093D8
:100DE0008D0640938C0601EE16E0158B048BF09374
:100DF000B706E093B606F583E48321E030E0DC013A
:100E00002D933C9387EF91E09387828729EF36E01B
:100E1000DA012D933C9340E050E060EF71E44093A1
:100E2000F0065093F1066093F2067093F3064AE0E1
:100E300057ED63E27CE3D8014D935D936D937C9312
:100E400013974BEC56E084E8C82E8CE4D82E8CE740
:100E5000E82E88EAF82EDA01CD92DD92ED92FC922E
:100E6000139786EA9BEAA5EAB9EE8093CF069093A2
:100E7000D006A093D106B093D20680ED92E1ACEDFE
:100E8000B2EB8093D3069093D406A093D506B0938B
:100E9000D6068AE994E2A3EAB7E18093D706909355
:100EA000D806A093D906B093DA06A9E8B3E0B383D5
:100EB000A283EFE7F3E01196FC93EE9385EF92E0C7
:100EC00091838083938382839583848397838683AE
:100ED000918780878BED96E015969C938E9314975F
:100EE00013965C934E93129717963C932E931697F6
:100EF00026E0E5E0F7E0DF011D922A95E9F72EE50F
:100F0000EEEEF5E011922A95E9F7EBE6F3E024E145
:100F1000DF011D922A95E9F7DC01ED93FC9382E154
:100F200090E09183808382E891E0938382838EE5D1
:100F300091E0958384838AE191E0978386838EE0B4
:100F400091E09187808792E3F92EF092140603E3F3
:100F50000093150624E32093160635E3632E609272
:100F6000170646E3742E7092180657E3C52EC092FA
:100F7000190668E3D62ED0921A0679E3E72EE0929E
:100F80001B0611E310931C06B0E3B0931D061093EB
:100F90001E0610931F0610932006F0922106109350
:100FA000220600932306812C912C54018394809275
:100FB0000F0690921006A0921106B092120640E021
:100FC00050E060E070E0CB012C834ED9909329066D
:100FD00080932806F0EA2F2EF6E83F2E442443940F
:100FE000512C2092240630922506409226065092DB
:100FF000270640EA56E861E070E059D931E03093C5
:101000001306109248061092490610924A06109252
:101010004B0610923E0643E456E0FA01108280929D
:101020003F0690924006A0924106B092420661E0CF
:101030008DE03B8349835A8307DA3B8149815A819A
:10104000DA013C93F092F4050093F5052C8120938E
:10105000F6056092F7057092F805C092F905D092F6
:10106000FA05E092FB051093FC05B0E3B093FD0593
:101070001093FE051093FF0510930006F0920106F1
:101080001093020600930306EEEEF5E010828091C5
:10109000B2019091B301A091B401B091B5018093D8
:1010A0000A0690930B06A0930C06B0930D061092BF
:1010B000F3058092EF059092F005A092F105B092B1
:1010C000F20540E050E060E070E0CB012C833B8310
:1010D000CBD890930906809308062092040630929C
:1010E0000506409206065092070640EA56E861E07F
:1010F00070E0DDD83B813093F305F0922E0600932B
:101100002F062C81209330066092310670923206B1
:10111000C0923306D0923406E0923506109336061C
:10112000F0E3F093370610933806109339061093C6
:101130003A06F0923B0610933C0600933D068092DF
:101140002A0690922B06A0922C06B0922D0662E001
:1011500080E00F900F900F900F90DF91CF911F9133
:101160000F91FF90EF90DF90CF90BF90AF909F9046
:101170008F907F906F905F904F903F902F905AC8C4
:1011800080910E06811118C081E080930E06809137
:101190000F0690911006A0911106B09112060197CA
:1011A000A105B10549F480911306882329F08091A7
:1011B00028069091290640D980913E06811103C0EE
:1011C00081E080933E068091EE05811118C081E098
:1011D0008093EE058091EF059091F005A091F105C7
:1011E000B091F2050197A105B10549F48091F3058D
:1011F000882329F080910806909109061DC9089559
:1012000060E070E080E89FE7089560E070E080E8CB
:101210009FE7089560E070E080E89FEF089560E048
:1012200070E080E89FEF089560E070E080EC9FEF51
:10123000089560E070E080EC9FEF0895F5DF609323
:101240001707709318078093190790931A07F1DF17
:1012500060930B0770930C0780930D0790930E0714
:10126000CFDF609313077093140780931507909353
:101270001607CBDF60930F07709310078093110759
:1012800090931207C7DF60931B0770931C0780932E
:101290001D0790931E07C3DF60931F0770932007FD
:1012A00080932107909322070895CF92DF92EF92C7
:1012B000FF92CF936B017C012091130730911407AB
:1012C00040911507509116070E94DB2EC1E088233C
:1012D00071F020911B0730911C0740911D07509120
:1012E0001E07C701B6010E94DB2E8111C0E08C2FC2
:1012F000CF91FF90EF90DF90CF9008950F931F93C1
:101300008B019C010027112720783F7701151105DB
:1013100020483F4749F4AB01BC016F77772781E054
:10132000452B462B472B09F480E01F910F91089520
:10133000E5CFEF92FF920F931F93CF93DF93DC01E2
:10134000EA01F90114968D919C91159712960D91D1
:101350001C911397080F191F2881398118964D91F8
:101360005C9119974217530728F04D915C911197A2
:10137000452B39F17801E21AF30A18964D915C91E8
:101380001997481B590B4E0D5F1D4617570794F1CF
:10139000A901460F571F40175107E0F0F182E08284
:1013A000338322836E197F097583648316161706AB
:1013B0001CF4382F292F02C030E020E03683278329
:1013C00013C018968D919C911997821B930B8617C9
:1013D000970784F07183608333832283158214829C
:1013E0001782168288819981680F791F79836883B3
:1013F00080E001C081E0DF91CF911F910F91FF90BC
:10140000EF900895CF92DF92EF92FF92CF93DF9308
:101410006B017C0184E48C9DE0018D9DD00D112435
:10142000CB56DC4F8AA99BA9009721F00E947B3202
:101430001BAA1AAA84E48C9DF0018D9DF00D112445
:10144000EB56FC4F86A997A9009711F00E947B32BA
:1014500084E48C9DF0018D9DF00D1124EB56FC4F22
:10146000138A128A168A178A108E118E128E138E84
:10147000148E158E168E178E10A211A281E090E0A8
:1014800093A382A315A214A216A217A210A611A6B6
:1014900013A612A615A614A616A617A610AA11AA78
:1014A00013AA12AA15AA14AA17AA16AA11AE10AE48
:1014B00012AE13AE14AE15AEDF01DE961D921D9274
:1014C0001D921C921397EE5BFF4F11821082DF91E9
:1014D000CF91FF90EF90DF90CF9008950F931F93DF
:1014E000CF93DF93EB01DC018D919C91FC01A681F0
:1014F000B781E881F98123E0EE0FFF1F2A95E1F71C
:1015000012962D913C911397E20FF31F00811181E8
:10151000AC85BD859D01220F331FDC0112968D9194
:101520009C911397D901A80FB91F8D919C9124818B
:101530003581232B19F461E070E002C062E070E0B5
:10154000689F9001699F300D789F300D1124888528
:101550009985289FB001299F700D389F700D112427
:10156000EC81FD812E9FC0012F9F900D3E9F900D1D
:101570001124800F911FFA0191838083738362830A
:10158000DF91CF911F910F9108952F923F924F922B
:101590005F926F927F928F929F92AF92BF92CF9203
:1015A000DF92EF92FF920F931F93CF93DF9300D0C0
:1015B00000D000D0CDB7DEB7DC011496ED91FC91E0
:1015C00015970190F081E02D808591859A8389831C
:1015D000A281B381BC83AB83FB0181909190A190E8
:1015E000B1908F01C12CD12C7601C814D904EA0422
:1015F000FB040CF05FC0D80114964D905D906D9087
:101600007C90179718964D915D916D917C911B97E9
:10161000F8017096FE83ED83F801A081B18183E02B
:10162000AA0FBB1F8A95E1F7E981FA818281938134
:10163000A80FB91F2D903C901197F801248535858E
:10164000220F331F8B819C81280F391FF9010081E4
:10165000118114968D919C911597892B19F481E035
:1016600090E002C082E090E0809F9001819F300D69
:10167000909F300D1124249F8001259F100D349FD1
:10168000100D1124249DC001259D900D349D900DB9
:101690001124A8016D817E81820D931D0E94133358
:1016A0008D819E81080F191F9FEFC91AD90AE90A77
:1016B000F90A9BCF26960FB6F894DEBF0FBECDBFBA
:1016C000DF91CF911F910F91FF90EF90DF90CF901E
:1016D000BF90AF909F908F907F906F905F904F9052
:1016E0003F902F900895CF93DF93DB01A652BE4F1A
:1016F0002C91222369F024E4269FF001279FF00D0E
:101700001124EB56FC4FEF0119922A95E9F71C9230
:1017100024E4269FF001279FF00D1124EB56FC4F87
:1017200014821582168217821186108613861286FD
:10173000118A108A17861686DF91CF9163CE2F9279
:101740003F924F925F926F927F928F929F92AF9251
:10175000BF92CF92DF92EF92FF920F931F93CF939E
:10176000DF93CDB7DEB728970FB6F894DEBF0FBE74
:10177000CDBF6B017C011A0184E48C9D90018D9D8D
:10178000300D11242B563C4FF90184819581A6819F
:10179000B781892B8A2B8B2B09F4B8C0A12CB12CD3
:1017A000412C512C320138872F83C90104969A832A
:1017B0008983D9011896BC83AB83E981FA81808142
:1017C0009181A281B381481659066A067B0694F579
:1017D000AB81BC81ED91FC91EA0DFB1D228133812F
:1017E0008901812C912C82149304C4F4D801ED91C9
:1017F000FC91309769F0848195812D833E830E940E
:101800007B32F801808191810E947B323E812D8163
:10181000FFEF8F1A9F0A0E5F1F4FE5CFC9010E948D
:101820007B328FEF481A580A680A780A94E0A90EAA
:10183000B11CC3CFAF81B88518968D919C91199733
:101840000E947B32EF81F88582859385892B59F13F
:10185000A12CB12C812C912C84E48C9D80018D9D38
:10186000100D112401561C4F8214930484F4D801E6
:10187000ED91FC91EA0DFB1D848195810E947B32E4
:10188000BFEF8B1A9B0AEEE0AE0EB11CEDCF84E4E5
:101890008C9DF0018D9DF00D1124EB56FC4F82853F
:1018A00093850E947B3284E48C9D90018D9D300D48
:1018B000112489010B561C4FD80150968D919C9193
:1018C00051970E947B32F801868597850E947B3272
:1018D000C701B60197DDC701B60128960FB6F89487
:1018E000DEBF0FBECDBFDF91CF911F910F91FF9053
:1018F000EF90DF90CF90BF90AF909F908F907F90B0
:101900006F905F904F903F902F90EDCE28960FB63E
:10191000F894DEBF0FBECDBFDF91CF911F910F9125
:10192000FF90EF90DF90CF90BF90AF909F908F90FF
:101930007F906F905F904F903F902F90089524E498
:10194000269FF001279FF00D1124EB56FC4F828952
:1019500093890497029758F485E090E0938B828BEB
:101960008FEF9FEFDC01828F938FA48FB58F089547
:101970002F923F924F925F926F927F928F929F929F
:10198000AF92BF92CF92DF92EF92FF920F931F938D
:10199000CF93DF93CDB7DEB7E0970FB6F894DEBFF5
:1019A0000FBECDBF9AA389A31B016A01280139018B
:1019B00084E4849D8001859D100D112498012B568F
:1019C0003C4F7901D9014D925D926D927C921397B3
:1019D000AB01C301B201B3DEF801E756FC4FD601FB
:1019E0004D915D916D917D918D01CA01408351832F
:1019F0006283738364E070E00E94CC31F7019187C9
:101A00008087892B09F49FC11E8E1D8E198E1A8E18
:101A10001B8E1C8EF8A2EF8E97012C5F3F4F38A7CC
:101A20002FA32C5F3F4F3AA729A7EFA1F8A58081EC
:101A30009181A281B381298D3A8D4B8D5C8D2817C0
:101A400039074A075B070CF0E7C0A9A5BAA58D9135
:101A50009C912D8D3E8D280F391F3A8B298BD801F3
:101A6000ED91FC91EE0FFF1FA9A1BAA18D919C9160
:101A7000E80FF91F80819181F90191838083D8015A
:101A800014962D913D914D915C9117972BA33CA3FA
:101A90004DA35EA3085F1F4F62E070E0C1010E948A
:101AA000CC31E989FA8993838283892B09F44BC16C
:101AB0001D8A1E8A1F8A188E2D893E894F89588D4E
:101AC0008BA19CA1ADA1BEA1281739074A075B07CE
:101AD0000CF08FC0D801ED90FC90EE0CFF1CE98952
:101AE000FA89C280D380CE0CDF1C68E070E081E010
:101AF00090E00E94CC31D6018D939C93E989FA89BC
:101B000082819381FC01EE0DFF1DC080D180C11444
:101B1000D10409F418C1F80184819581A681B781A7
:101B2000F60180839183A283B383085F1F4F181649
:101B300019061A061B0634F01C8A1B8A812C912C6C
:101B400054010CC064E070E00E94CC31D6011596BF
:101B50009C938E931497892B79F7F5C0F6018081B9
:101B60009181A281B38188169906AA06BB06A4F5C5
:101B7000F601E480F5802B893C89E20EF31EF80122
:101B8000DE01119680E101900D928A95E1F7005FE8
:101B90001F4FA701BE016F5F7F4FA9A1BAA1149685
:101BA0008D919C9115979ADCF60126813781D7019A
:101BB00012968D919C911397820F931F9783868322
:101BC000BFEF8B1A9B0AAB0ABB0A2B893C892C5F9F
:101BD0003F4F3C8B2B8BC2CF2D893E894F89588D2F
:101BE0002F5F3F4F4F4F5F4F2D8B3E8B4F8B588F4B
:101BF00063CF298D3A8D4B8D5C8D2F5F3F4F4F4FBB
:101C00005F4F298F3A8F4B8F5C8F2D8D3E8D2C5FD0
:101C10003F4F3E8F2D8F09CF6EE070E0C1010E94D3
:101C2000CC31AF8DB8A11B969C938E931A97812CC3
:101C3000912CA12CB12CC12CD12C24E4249DC001C9
:101C4000259D900D11249C0121563C4F3A8B298BE8
:101C500021E030E0A214B3040CF04DC0D8014D9146
:101C60005D916D917D918D01E989FA89E080F18026
:101C7000E80CF91C77FD67C0D70111963C932E93B1
:101C80004115510561057105A9F0CA012FA738ABAF
:101C90004BA75CA76DA77EA70E94E631F70195834D
:101CA00084832FA538A94BA55CA56DA57EA5892B9E
:101CB00031F449C0D70115961C921E921497F70172
:101CC000538342838481958197838683918780871C
:101CD0001386128681E090E0452B462B472B11F4AA
:101CE00080E090E0C80ED91EFFEFAF1ABF0A4EE0A9
:101CF000840E911CAFCF84E4849D8001859D100DDE
:101D000011240B561C4FD8011D961C921E921C9735
:101D1000C60133E0880F991F3A95E1F70E94E6313A
:101D2000F801918B808B892B71F0C601880F991F68
:101D30000E94E631D8011F969C938E931E97892BA3
:101D400011F080E005C0A101C301B201F8DC81E01F
:101D5000E0960FB6F894DEBF0FBECDBFDF91CF91F6
:101D60001F910F91FF90EF90DF90CF90BF90AF90B9
:101D70009F908F907F906F905F904F903F902F90AB
:101D800008952F923F924F925F926F927F928F921F
:101D90009F92AF92BF92CF92DF92EF92FF920F93FA
:101DA0001F93CF93DF93CDB7DEB768970FB6F89444
:101DB000DEBF0FBECDBF9C8B8B8BDB0149015A016F
:101DC00024E4289DC001299D900D11249C012B56CF
:101DD0003C4F79012D913C911197F701358B248B64
:101DE000FC01E555FC4F14964D915D916D917C91F0
:101DF00017974083518362837383FC01E155FC4F45
:101E000018964D915D916D917C911B974083518304
:101E100062837383FC01ED54FC4F1C964D915D91E0
:101E20006D917C911F974083518362837383FC0182
:101E3000ED53FC4F50965C91509751964C915197B1
:101E400052963C91529753962C91539750834183CD
:101E5000328323838D010C5E1F4F852F942F18161C
:101E600019060CF068C0880F991F880F991F0E94EF
:101E7000E631D701D3969C938E93D297892B09F4A0
:101E8000BCC0212C312C412C512C32019701225DF8
:101E90003F4F3E8B2D8B2C5F3F4F388F2F8B2E5F0C
:101EA0003F4F3A8B298BB301A2012FEF421A520AFE
:101EB000620A720AED89FE8980819181A281B381D3
:101EC000481759076A077B074CF5AF89B88DCD9045
:101ED000DC90C20CD31CF801DE01119680E1019068
:101EE0000D928A95E1F7005F1F4FA601BE016F5F5B
:101EF0007F4FEB89FC8984819581F0DAA989BA89C1
:101F00008D919C911197F60122813381820F931F4D
:101F10008D939C93F4E02F0E311CC5CFD701D4963E
:101F20008D919C91D5970E94E631F70197AB86ABD6
:101F3000892B09F462C0F80180819181A281B3816B
:101F400024E4289DF001299DF00D1124EB56FC4F4F
:101F5000AC01BD014D7F21E030E0452B462B472BE6
:101F600011F020E030E033A322A324E4289DF00107
:101F7000299DF00D1124EB56FC4F0197A109B109E1
:101F800021E030E00297A105B10510F020E030E03B
:101F900035A324A384E4889DF001899DF00D1124CC
:101FA000CF0185549C4FD80114964D915D916D9150
:101FB0007C911797DC014D935D936D937C93139700
:101FC000EB56FC4F868D978DA0A1B1A1B7FF10C035
:101FD000B095A095909581959F4FAF4FBF4F82AF21
:101FE00093AFA4AFB5AF168E178E10A211A20AC080
:101FF00012AE13AE14AE15AE05C0C501B40102DABF
:1020000081E001C080E068960FB6F894DEBF0FBE95
:10201000CDBFDF91CF911F910F91FF90EF90DF9097
:10202000CF90BF90AF909F908F907F906F905F9078
:102030004F903F902F900895CF92DF92EF92FF92B2
:10204000CF93DF9310921D0424E4269FF001279F75
:10205000F00D1124EB56FC4F15A614A620E030E03D
:10206000C12CD12CDF011A96C1E0D0E0C416D506F0
:10207000D4F4ED91FC911197E20FF31FE280F3800D
:102080001E141F0454F4E480F580F782E682F18682
:10209000E08613861286D183C083EFEFCE1ADE0A64
:1020A000225F3F4FE3CF24E4269FF001279FF00DEE
:1020B0001124EB56FC4F13A612A611AE10AEDF0191
:1020C000DE961D921D921D921C92139782E090E065
:1020D000938B828BDF91CF91FF90EF90DF90CF9029
:1020E000089524E4269FF001279FF00D1124EB565C
:1020F000FC4F138A128A23CB24E4269FF001279FEA
:10210000F00D1124EB56FC4F8289938981309105A3
:10211000C8F08530910518F0059769F008958FEFA4
:102120009FEFDC01828F938FA48FB58F85E090E0C5
:10213000938B828B08958FEF9FEFDC01828F938FBB
:10214000A48FB58F089524E4249FF001259FF00DFE
:102150001124EB56FC4F2EE0AC01249FC001259FBB
:10216000900D11240284F385E02DE80FF91F81E022
:1021700080931D0482859385918780874085518552
:102180002681378181E090E04217530711F080E00B
:1021900090E09183808308952F923F924F925F92B7
:1021A0006F927F928F929F92AF92BF92CF92DF9267
:1021B000EF92FF920F931F93CF93DF93CDB7DEB7CC
:1021C000C255D1090FB6F894DEBF0FBECDBF219620
:1021D0009FAF8EAF21974BA75CA76DA77EA7480145
:1021E000590184E4889D8001899D100D1124F80116
:1021F000EB56FC4F2285338527963FAF2EAF2797AE
:1022000082899389029709F060C186A597A5A0A944
:10221000B1A9892B8A2B8B2B29F484E090E0938B36
:10222000828B53C18489958921964EAD5FAD2197EC
:102230004817590709F049C186A997A99AAB89ABF4
:102240001EAE1DAE19AE1AAE1BAE1CAE8F01DF0165
:102250009E962996BFAFAEAF2997F2962B96FFAF09
:10226000EEAF2B979801285C3F4F2D963FAF2EAFD6
:102270002D97A8014A5D5F4F2F965FAF4EAF2F9706
:10228000C801829661969FAF8EAF61971A97639649
:10229000BFAFAEAF63972996EEADFFAD29978081B2
:1022A0009181A281B38129AD3AAD4BAD5CAD2817C8
:1022B00039074A075B070CF0E7C02B96EEADFFAD80
:1022C0002B97808191812DAD3EAD280F391F3EABFC
:1022D0002DABD90112960D90BC91A02D2396BFAFC6
:1022E000AEAF2397B695A795B695A7952596BFAFA0
:1022F000AEAF25972D96EEADFFAD2D9780819181E4
:10230000892B09F496C02F96AEADBFAD2F97CD9017
:10231000DD90ED90FC9029A83AA8F9010190F08198
:10232000E02DF8ABEFA718AE1FAA8FA998AD2596A0
:10233000AEADBFAD25978A179B070CF07AC06196AA
:10234000AEADBFAD61978D919C91892B69F1EFA5E1
:10235000F8A94080518062807380A7019601C30173
:10236000B2010E94C63087FD0BC0A7019601D101C2
:102370006D917D918D919C910E94DB2E87FD8CC08B
:10238000A7019601C301B2010E94C630181664F479
:10239000A7019601F10160817181828193810E9480
:1023A000DB2E882309F478C06396AEADBFAD63978A
:1023B0008D919C91892B69F1EFA5F8A940805180FE
:1023C00062807380A7019601C301B2010E94DB2ED7
:1023D00087FF0BC0A7019601D1016D917D918D9171
:1023E0009C910E94C63087FF57C0A7019601C30188
:1023F000B2010E94DB2E81110CC0A7019601F101F0
:1024000060817181828193810E94C63018160CF41C
:1024100043C02FA938AD2F5F3F4F38AF2FAB34E00B
:10242000230E311C4FA558A94C5F5F4F58AB4FA7E7
:102430007CCFEDA9FEA96081718123964EAD5FAD81
:10244000239789A99AA90E94133325968EAD9FAD33
:102450002597880F991F880F991F29A93AA9280F36
:10246000391F3AAB29AB89AD9AADABADBCAD019686
:10247000A11DB11D89AF9AAFABAFBCAFADADBEADC5
:102480001496BEAFADAF07CF81E090E0D801D996EA
:102490009C938E93D89719C084E4889DF001899D00
:1024A000F00D1124EB56FC4F868D978DA0A1B1A1A4
:1024B000892B8A2B8B2B09F064C284E090E0938BEC
:1024C000828B86AD97AD93A782A784E4889DF001A7
:1024D000899DF00D1124EB56FC4F8289938982303F
:1024E000910571F482AD93ADA4ADB5AD1816190682
:1024F0001A061B060CF04CC2CC24C394D12C05C088
:10250000049709F045C2C12CD12C8EE02196EEAD86
:10251000FFAD21978E9F70018F9FF00C112427969D
:102520002EAD3FAD2797E20EF31ED70112964D91C7
:102530005C9113974115510509F42AC216968D91A5
:102540009C9117979AA789A7FE01319684E1DF0134
:102550001D928A95E9F7898A9A8AAB8ABC8AC11446
:10256000D10409F457C084E4889DF001899DF00DE1
:102570001124EB56FC4FDF01DE964D905D906D907F
:102580007C9082AD93ADA4ADB5AD481659066A06F0
:102590007B0609F03FC0F701648175810084F185F5
:1025A000E02D84819581A681B7819C018D8B9E8BC6
:1025B000AF8BB88F285F3F4F3E8B2D8BD70118967E
:1025C0008D919C911997280F391F19963C932E9342
:1025D000189718968D919C911997460F571F841B39
:1025E000950B97FD06C0860F971F19969C938E93A7
:1025F000189784E4889DF001899DF00D1124ED5217
:10260000FC4FB1E04B1A51086108710840825182B9
:10261000628273829E012B5E3F4FAE01475D5F4F2A
:1026200064E170E0C7010E949909082F10E00115CC
:10263000110509F091C18CE090E0A0E0B0E08D833D
:102640009E83AF83B8879E01235E3F4FAE01475DF7
:102650005F4F64E070E0C7010E949909082F10E005
:102660000115110509F078C180E190E0A0E0B0E02B
:102670008D839E83AF83B8874D8D5E8DBE01655D72
:102680007F4F8F8D98A10E9413338BA19CA100973F
:1026900061F06D8D7E8DEBE2F0E0EC0FFD1F6E0FB3
:1026A0007F1F49A15AA10E9413331DA21EA21FA27F
:1026B00018A621962EAD3FAD2197220F331F38AFBC
:1026C0002FAB24E4289DC001299D900D11248B5629
:1026D0009C4FAC014C5F5F4F5AAF49AFDC0118967D
:1026E000BEAFADAF2DA13EA14FA158A529AB3AABCE
:1026F0004BAB5CABE9ADFAAD80819181A281B38136
:10270000281739074A075B070CF0CFC0ADADBEAD47
:10271000ED91FC9189A99AA9880F991F880F991F9B
:10272000E80FF91FA081B1818C91882309F4AFC013
:10273000833009F4ACC00280F381E02D2FA938ADBD
:10274000E20FF31F4081518158AB4FA7452B09F48D
:102750009EC089859A85AB85BC850196A11DB11D5A
:1027600089879A87AB87BC879E01235E3F4FAE0166
:10277000475D5F4F64E070E0C7010E94990990E0F7
:10278000009709F0E8C08D819E81AF81B8850496DD
:10279000A11DB11D8D839E83AF83B8874D8D5E8D46
:1027A000BE016B5D7F4F8F8D98A10E9413338BA16B
:1027B0009CA1009761F06D8D7E8DA5E2B0E0AC0F1D
:1027C000BD1F6A0F7B1F49A15AA10E9413331EAA85
:1027D0001DAA412C512C3201EFA5F8A980819181CD
:1027E000A281B381481659066A067B060CF04FC0D9
:1027F000EFA5F8A9248035802DA93EA9220E331E0D
:10280000D10112966D917C9113979E01235E3F4FEB
:10281000AE01475D5F4FC7010E94990990E00097A4
:1028200009F099C0F10182819381092E000CAA0B55
:10283000BB0B4D815E816F817885840F951FA61F2C
:10284000B71F8D839E83AF83B887608171814D8D63
:102850005E8D8F8D98A10E9413338BA19CA1009750
:1028600059F0D1016D917C912D8D3E8D620F731FBA
:1028700049A15AA10E941333BFEF4B1A5B0A6B0A9E
:102880007B0AEDA9FEA93496FEABEDABA5CF49A816
:102890005AA86BA87CA8FFEF4F1A5F0A6F0A7F0A3D
:1028A0004DA25EA26FA278A61DCF89859A85AB85C1
:1028B000BC85892B8A2B8B2B09F44EC08AE190E0D2
:1028C000A0E0B0E089839A83AB83BC8321962EADD0
:1028D0003FAD2197C901330FAA0BBB0B8D879E8794
:1028E000AF87B88B4D895E89BE016F5F7F4F8F893F
:1028F000988D0E9413338B8D9C8D009761F06D89AC
:102900007E8941E050E04C0F5D1F640F751F498DBB
:102910005A8D0E94133389A59AA5D70117969C93C7
:102920008E93169711961C921E92CD2889F184E4FD
:10293000889DF001899DF00D1124ED52FC4F80819E
:102940009181A281B3810196A11DB11D80839183E4
:10295000A283B3831DC08C01CD28D1F4012BC1F01B
:1029600084E4889DF001899DF00D1124EB56FC4F05
:1029700081E090E095A784A785E090E0938B828B1F
:1029800007C083E090E0938B828B81E090E09BCD49
:10299000CE5ADF4F0FB6F894DEBF0FBECDBFDF912A
:1029A000CF911F910F91FF90EF90DF90CF90BF904C
:1029B000AF909F908F907F906F905F904F903F90DF
:1029C0002F900895CF92DF92EF92FF920F931F9373
:1029D0006B017C0184E48C9DF0018D9DF00D112430
:1029E000EB56FC4F82899389009709F450C00197F8
:1029F000B9F482A593A59C012F5F3F4F33A722A76F
:102A0000092E000CAA0BBB0B028D138D248D358D66
:102A100080179107A207B307D1F5C701B6010CDBF8
:102A200084E48C9DF0018D9DF00D1124EB56FC4F3C
:102A300082899389039759F582A593A59C012F5FFD
:102A40003F4F33A722A7092E000CAA0BBB0B468DC4
:102A5000578D60A171A184179507A607B707BCF031
:102A600086AD97AD93A782A784E090E0938B828B8D
:102A700082AD93ADA4ADB5AD181619061A061B06A6
:102A800034F4EE5BFF4F81E090E0918380831F91EF
:102A90000F91FF90EF90DF90CF90089524E4269F50
:102AA000F001279FF00D1124EB56FC4F828993898A
:102AB0000497B1F482A593A5019693A782A7092E46
:102AC000000CAA0BBB0B46895789608D718D84174A
:102AD0009507A607B70721F485E090E0938B828BDA
:102AE00008952F923F924F925F926F927F928F92B2
:102AF0009F92AF92BF92CF92DF92EF92FF920F938D
:102B00001F93CF93DF93CDB7DEB72E970FB6F89410
:102B1000DEBF0FBECDBF49835A836B837C834901DF
:102B2000442E552E24E4249DF001259DF00D112402
:102B3000EB56FC4F228833889101245031091586C9
:102B400014862230310508F0DDC0DC0111961C929C
:102B50001E9213961C921E921297A12CB12C60E02B
:102B600070E09F01265F3F4F38872F837F013CE055
:102B7000E30EF11CDF015096BA87A9879F01225FFF
:102B80003F4F3C872B87681579050CF06FC0EF81AC
:102B9000F885A081B1819D012A0D3B1D3E872D87BF
:102BA000D9012D913C911197232B09F059C018960A
:102BB0000D911C9119971296ED91FC911397FE833C
:102BC000ED8316962D913C911797D7014D915C910D
:102BD000DA01E3E0AA0FBB1FEA95E1F7E985FA8580
:102BE000C080D180FD01EC0DFD1D440F551FAB854C
:102BF000BC85CD90DC904C0D5D1DDA016D937C930E
:102C0000D7014D915C9111974F5F5F4F4D935C934E
:102C100013830283AD85BE851B963C932E931A9732
:102C20000217130748F4201B310B318320831582D0
:102C300014821782168214C0AD85BE851496CD907D
:102C4000DC9015974D815E814C0D5D1D401B510B35
:102C5000518340832C193D0935832483D782C68252
:102C60006F5F7F4FBEE0AB0EB11C8DCF24E4249D7F
:102C70008001259D100D11240B561C4FF801248551
:102C80003585DC0111963C932E934089518913962A
:102C90005C934E9312974685578515965C934E9399
:102CA0001497232BA1F5B5E02B16310481F5109272
:102CB0001D04828D938DA48DB58DAE014F5F5F4F46
:102CC00064E070E08F3F9F4FAF4FBF4F59F480E2F9
:102CD00090E00E940A2069817A818B819C81A40105
:102CE00000DA15C08FE190E00E940A20D8019B967F
:102CF0001C921E929A9781E090E053969C938E933B
:102D0000529705C0FC0111821082138212822E9606
:102D10000FB6F894DEBF0FBECDBFDF91CF911F91EC
:102D20000F91FF90EF90DF90CF90BF90AF909F906A
:102D30008F907F906F905F904F903F902F9008956D
:102D4000EF92FF920F931F93CF93DF937C018B0140
:102D5000EA010E948D20811121C08091DC019091B7
:102D6000DD01049711F183E090E09093DD01809301
:102D7000DC011BC098819111F0CF28ED38EB45E0C4
:102D800050E060E070E0CB010E941723AE01B80173
:102D9000C7010E942523C8010E94F02280911E04D1
:102DA00090911F04892B31F3D8CFDF91CF911F91E0
:102DB0000F91FF90EF900895CF93DF932091DC0166
:102DC0003091DD012430310541F0EB010E942523D3
:102DD000CE01DF91CF910C94F022DF91CF91089535
:102DE0000C9439270C942E270C941C270C94002348
:102DF0000C94BF26089560E070E080E090E00C94B1
:102E000068200895AF92BF92CF92DF92EF92FF9227
:102E10000F931F93CF93DF9300D0CDB7DEB75C0144
:102E200069017A018B0180E090E0C114D104E104D2
:102E3000F104F1F0C114D10421E0E206F10410F430
:102E4000A60102C04FEF5FEF9E012F5F3F4FB80119
:102E5000C5010E94DB278F3F2FEF920749F02981A0
:102E60003A81C21AD30AE108F108020F131FDDCF1D
:102E70000F900F90DF91CF911F910F91FF90EF90E6
:102E8000DF90CF90BF90AF900895089508951F925E
:102E90000F920FB60F9211242F933F934F935F938E
:102EA0006F937F938F939F93AF93BF93EF93FF9312
:102EB000E091DE01F091DF010995FF91EF91BF9163
:102EC000AF919F918F917F916F915F914F913F91C2
:102ED0002F910F900FBE0F901F9018951F920F9279
:102EE0000FB60F9211242F933F934F935F936F93DD
:102EF0007F938F939F93AF93BF93EF93FF93E09153
:102F0000E001F091E1010995FF91EF91BF91AF913F
:102F10009F918F917F916F915F914F913F912F91F1
:102F20000F900FBE0F901F9018951F920F920FB623
:102F30000F9211242F933F938F939F93AF93BF933F
:102F40008091210490912204A0912304B091240443
:102F50003091200423E0230F2D3720F40196A11D8A
:102F6000B11D05C026E8230F0296A11DB11D2093B7
:102F700020048093210490932204A0932304B0930F
:102F800024048091250490912604A0912704B091F7
:102F900028040196A11DB11D809325049093260459
:102FA000A0932704B0932804BF91AF919F918F9174
:102FB0003F912F910F900FBE0F901F9018953FB724
:102FC000F8948091250490912604A0912704B09153
:102FD000280426B5A89B05C02F3F19F00196A11D16
:102FE000B11D3FBFBA2FA92F982F8827820F911D9F
:102FF000A11DB11DBC01CD0142E0660F771F881FE6
:10300000991F4A95D1F708958F929F92AF92BF92E0
:10301000CF92DF92EF92FF926B017C01D0DF4B01E8
:103020005C01C114D104E104F104F1F02EDFC7DF2B
:10303000DC01CB0188199909AA09BB09883E934094
:10304000A105B10570F321E0C21AD108E108F10829
:1030500088EE880E83E0981EA11CB11CC114D10417
:10306000E104F10421F7DDCFFF90EF90DF90CF90E6
:10307000BF90AF909F908F900895789484B58260B0
:1030800084BD84B5816084BD85B5826085BD85B50C
:10309000816085BDEEE6F0E0808181608083E1E8BB
:1030A000F0E01082808182608083808181608083F3
:1030B000E0E8F0E0808181608083E1EBF0E08081F6
:1030C00084608083E0EBF0E0808181608083EAE7C8
:1030D000F0E0808184608083808182608083808151
:1030E000816080838081806880831092C100089510
:1030F000833081F028F4813099F08230A1F0089576
:103100008730A9F08830B9F08430D1F48091800004
:103110008F7D03C0809180008F7780938000089519
:1031200084B58F7702C084B58F7D84BD089580916A
:10313000B0008F7703C08091B0008F7D8093B00086
:103140000895CF93DF9390E0FC01E456FF4F249164
:10315000FC01E055FF4F8491882361F190E0880FD6
:10316000991FFC01E253FF4FC591D491FC01EC5330
:10317000FF4FA591B491611109C09FB7F894888160
:10318000209582238883EC912E230BC0623061F45A
:103190009FB7F8943881822F809583238883EC91A0
:1031A0002E2B2C939FBF06C08FB7F894E8812E2B4F
:1031B00028838FBFDF91CF9108951F93CF93DF9323
:1031C000282F30E0F901E857FF4F8491F901E456C8
:1031D000FF4FD491F901E055FF4FC491CC23C1F0CA
:1031E000162F811185DFEC2FF0E0EE0FFF1FEC535F
:1031F000FF4FA591B4918FB7F894111105C09C9120
:10320000ED2FE095E92302C0EC91ED2BEC938FBFFD
:10321000DF91CF911F910895FC01918D228D892F0F
:1032200090E0805C9F4F821B91098F7399270895CE
:10323000FC01918D828D981731F0828DE80FF11D80
:10324000858D90E008958FEF9FEF0895FC01918D9B
:10325000828D981761F0828DDF01A80FB11D5D96F8
:103260008C91928D9F5F9F73928F90E008958FEF66
:103270009FEF0895FC01848DDF01A80FB11DA35AB3
:10328000BF4F2C91848D90E001968F739927848F86
:10329000A689B7892C93A089B1898C9180648C937D
:1032A000938D848D981306C00288F389E02D808168
:1032B0008F7D80830895CF93DF93EC01888D8823E1
:1032C000C1F0EA89FB89808185FD05C0A889B9899B
:1032D0008C9186FD0EC00FB607FCF5CF808185FF6F
:1032E000F2CFA889B9898C9185FFEDCFCE01C2DFDD
:1032F000E8CFDF91CF910895EF92FF920F931F9344
:10330000CF93DF93EC0181E0888F9B8D8C8D981398
:1033100005C0E889F989808185FD23C0F62E0B8DD3
:1033200010E00F5F1F4F0F731127E02E8C8DE812F6
:103330000BC00FB607FCFACFE889F989808185FFB9
:10334000F5CFCE0197DFF2CF8B8DFE01E80FF11D97
:10335000E35AFF4FF0820B8FEA89FB8980818062FC
:1033600007C0EE89FF896083E889F98980818064DC
:10337000808381E090E0DF91CF911F910F91FF90CA
:10338000EF900895CF92DF92EF92FF921F93CF9329
:10339000DF93EC016A017B01122FE889F98982E051
:1033A00080834115514E61057105B1F060E079E00F
:1033B0008DE390E0A70196010E945B31DA01C9011B
:1033C0000197A109B109B695A79597958795AC0185
:1033D000411580E15807A8F0E889F989108260E872
:1033E00074E88EE190E0A70196010E945B31BA017A
:1033F000A901415051096109710976956795579561
:103400004795EC85FD855083EE85FF854083188EBA
:10341000EC89FD891083EA89FB8980818061808342
:10342000EA89FB89808188608083EA89FB898081C1
:1034300080688083EA89FB8980818F7D8083DF912A
:10344000CF911F91FF90EF90DF90CF9008951F9242
:103450000F920FB60F9211242F938F939F93EF9398
:10346000FF93E0913904F0913A048081E0913F04A8
:10347000F091400482FD12C09081809142048F5FE0
:103480008F7320914304821751F0E0914204F0E0E1
:10349000E75DFB4F958F8093420401C08081FF91CF
:1034A000EF919F918F912F910F900FBE0F901F90D2
:1034B00018951F920F920FB60F9211242F933F93DE
:1034C0004F935F936F937F938F939F93AF93BF932C
:1034D000EF93FF9389E294E0CDDEFF91EF91BF91EE
:1034E000AF919F918F917F916F915F914F913F919C
:1034F0002F910F900FBE0F901F901895E9E2F4E006
:103500001382128288EE93E0A0E0B0E0848395837A
:10351000A683B7838CEF92E09183808385EC90E063
:103520009587848784EC90E09787868780EC90E08D
:10353000918B808B81EC90E0938B828B82EC90E07E
:10354000958B848B86EC90E0978B868B118E128EF8
:10355000138E148E08958F929F92AF92BF92CF9246
:10356000DF92EF92FF920F931F93CF93DF937C0133
:103570008B016C0182E0C80ED11C4701E5E08E0E84
:10358000911CC0E0D0E0F60161916F014AE050E08B
:10359000C801C6D05C016EE2C80167D08A0D9B1DD0
:1035A000C80FD91FC814D90471F74AE050E0F701D9
:1035B0006581C801B5D08C0F9D1FDF91CF911F9100
:1035C0000F91FF90EF90DF90CF90BF90AF909F90C2
:1035D0008F900895E6ECF4E08CE093E09183808393
:1035E00012821382148215820895CF92DF92EF9295
:1035F000FF920F931F93CF93DF936C017A018B019E
:10360000C0E0D0E0CE15DF0589F0D8016D918D01C5
:10361000D601ED91FC910190F081E02DC601099554
:10362000892B11F47E0102C02196ECCFC701DF91F6
:10363000CF911F910F91FF90EF90DF90CF90089561
:103640006115710579F0FB0101900020E9F73197D0
:10365000AF01461B570BDC01ED91FC910280F38119
:10366000E02D099480E090E00895DC01ED91FC915B
:103670000190F081E02D09944F925F926F927F92BA
:10368000EF92FF920F931F93CF93DF93CDB7DEB7E7
:10369000A1970FB6F894DEBF0FBECDBF7C01FA0133
:1036A000CB0119A2223008F42AE08E010F5D1F4FD2
:1036B000422E512C612C712CBF01A30192010E945A
:1036C0005B31F901CA01015011096A3014F4605DDF
:1036D00001C0695CD8016C93232B242B252B61F747
:1036E000B801C701ADDFA1960FB6F894DEBF0FBEDB
:1036F000CDBFDF91CF911F910F91FF90EF907F9001
:103700006F905F904F9008952115310541F4DC01D1
:10371000ED91FC910190F081E02D642F0994ACCFE4
:103720009A01462F50E060E070E0EECF813039F032
:1037300018F0823051F0089510926E000895809133
:103740006F008D7F80936F000895809170008D7F52
:103750008093700081E08093B0008091B100887FF9
:1037600084608093B1001092B3000895CF93C82F66
:103770008091E2018C1307C0E8EDF0E0E4918FEF57
:103780008093E20101C0EFEF8E2FD0DF60E08C2F3D
:10379000CF9113CD1F920F920FB60F9211242F933A
:1037A0003F934F935F936F937F938F939F93AF93C9
:1037B000BF93EF93FF938091CF049091D004A09199
:1037C000D104B091D204892B8A2B8B2B51F180919B
:1037D000CC04E091CD04F091CE04908189278083C0
:1037E0008091CF049091D004A091D104B091D204E3
:1037F000181619061A061B06BCF48091CF04909186
:10380000D004A091D104B091D2040197A109B109CB
:103810008093CF049093D004A093D104B093D204AA
:1038200003C08091E201A2DFFF91EF91BF91AF91C0
:103830009F918F917F916F915F914F913F912F91C8
:103840000F900FBE0F901F9018954F925F926F923E
:103850007F92AF92BF92CF92DF92EF92FF920F933F
:103860001F93CF93DF93CDB7DEB729013A019B01B8
:10387000AC01241935094609570989899A89AB8908
:10388000BC89BC01CD016A197B098C099D090E9484
:103890002D31A801970124193509460957090E94BD
:1038A0007D31CA01B9016A0D7B1D8C1D9D1DDF9103
:1038B000CF911F910F91FF90EF90DF90CF90BF902D
:1038C000AF907F906F905F904F90089540E855E2E1
:1038D00060E070E080E090E000C026E089E294E0E3
:1038E00051CD1F920F920FB60F9211242F933F9339
:1038F0004F935F936F937F938F939F93AF93BF93F8
:10390000EF93FF9383E88093B2008091D3048F5F9D
:103910008093D304853021F41092D3040E946E2D3D
:10392000FF91EF91BF91AF919F918F917F916F9197
:103930005F914F913F912F910F900FBE0F901F906D
:10394000189583E88093B200A0E7B0E08C918E7F59
:103950008C93E0EBF0E080818C7F8083E1EBF0E002
:103960008081877F808380818660808380818E7F55
:1039700080838C9181608C930895E0E7F0E08081F2
:103980008E7F8083089581E008956F927F928F9259
:103990009F92AF92BF92CF92DF92EF92FF920F93DE
:1039A0001F93CF93DF935C017B014A0101E010E09C
:1039B0000E151F0564F568018FEFC81AD80AE801D3
:1039C000CC0FDD1FC80DD91D68807980611471048A
:1039D000E1F06EE073E0C3010E942333892B19F4F8
:1039E0001982188212C061E173E0C3010E9423337F
:1039F000892B59F4CE14DF0441F06801E2E0CE0EC9
:103A0000D11C198218821B821A828601D1CF81E0D3
:103A1000F5018083B401C7010E946627F5019283F6
:103A2000818380E090E0DF91CF911F910F91FF9013
:103A3000EF90DF90CF90BF90AF909F908F907F904E
:103A40006F90089584ED94E0089580E008950F93B9
:103A50001F93CF93DF938B01BA01E901198218827A
:103A60009801012E000C440B550BFC0181819281C1
:103A7000C9D9019621F01983088380E001C081E053
:103A8000DF91CF911F910F9108950F931F93CF93C3
:103A9000DF9300D0CDB7DEB7FB018A01B9019E01EB
:103AA0002F5F3F4FAF01FC01818192810E947D27F2
:103AB000019639F089819A81F8019183808380E0B1
:103AC00001C081E00F900F90DF91CF911F910F9176
:103AD0000895FC01808108950895089581E0FB0117
:103AE000808380E0089508951092FE040895FC01FB
:103AF000818192810C945B27CF93DF93CDB7DEB7A2
:103B00002A970FB6F894DEBF0FBECDBFAC01CB0134
:103B100060E070E049835A836B837C83092E000C3C
:103B2000AA0BBB0B8D839E83AF83B8879E01275F53
:103B30003F4FAE014F5F5F4F68E070E08091ED0452
:103B40009091EE0484DF811108C081E029853A85D7
:103B50002830310519F480E001C081E02A960FB6C3
:103B6000F894DEBF0FBECDBFDF91CF9108950F93C4
:103B70001F93CF93DF9300D0CDB7DEB78B019E01AB
:103B80002F5F3F4FAC018091ED049091EE045FDF19
:103B9000811108C081E029813A812017310719F489
:103BA00080E001C081E00F900F90DF91CF911F91D5
:103BB0000F910895CF93DF93EC011092F1041092CE
:103BC000F0041092FD041092FC04AC0160E070E07F
:103BD000CB010E947110AE0161E070E080E090E0E6
:103BE0000E9471108091ED049091EE04DF91CF91CD
:103BF0007ACF4F925F926F927F928F929F92AF9205
:103C0000BF92CF92DF92EF92FF920F931F93CF93C9
:103C1000DF9300D0CDB7DEB79C016C0197FF03C0E6
:103C200087E0C80ED11C43E0D594C7944A95E1F7CC
:103C3000C90168E070E00E9448317C0189010E5F93
:103C40001F4F8091EB049091EC04801791070CF0CA
:103C5000DCC08091E9049091EA04009731F00E9461
:103C60007B321092EC041092EB04C8010E94E63102
:103C70009093EA048093E904892B29F01093EC04D3
:103C80000093EB04C2C0A12CB12CAC14BD040CF009
:103C90005EC0412C512C320100E010E098012E5002
:103CA0003B4FAE014F5F5F4F61E070E08091ED04EC
:103CB0009091EE04EADE811198C189819A812FEFFB
:103CC000421A520A620A720A20E942162FE5520687
:103CD00021E0620671043CF06091FC047091FD04E7
:103CE0008DEE90E02DC0080F191F0A30110551F517
:103CF00049E050E060E070E082EF94E00E94072825
:103D00006091FC047091FD048823C1F08091FA0455
:103D100090E06817790709F0B8CF8EEE90E0ECDEFE
:103D20008091FC049091FD04019699279093FD04E5
:103D30008093FC048FEFA81AB80AA7CF8FEE90E00B
:103D4000DBDEA7CF0A3011050CF4A8CF9ECFEF28F9
:103D500009F44BC1C12CD12C760100E010E0980190
:103D60002E503B4FAE014F5F5F4F61E070E080919E
:103D7000ED049091EE0489DE811137C189819A8129
:103D80002FEFC21AD20AE20AF20A20E9C2162FE580
:103D9000D20621E0E206F1043CF06091FC0470914F
:103DA000FD048DEE90E02AC0080F191F0A3011059E
:103DB00039F549E050E060E070E082EF94E00E9465
:103DC00007286091FC047091FD048823A9F080917C
:103DD000FA0490E06817790709F007C18EEE90E0C9
:103DE0008BDE8091FC049091FD04019699279093BD
:103DF000FD048093FC04F9C08FEE90E07DDEAACF35
:103E00000A3011050CF4ABCFF0C000E010E00C1547
:103E10001D050CF077C0412C512C3201A12CB12C86
:103E2000480193E0880C991C9A95E1F72091E904E8
:103E30003091EA04C4018A0D9B1D280F391FAE0181
:103E40004F5F5F4F61E070E08091ED049091EE0470
:103E50001CDE8111CAC089819A812FEF421A520A51
:103E6000620A720A20E942162FE5520621E0620634
:103E700071043CF06091FC047091FD048DEE90E0C3
:103E800034C0A80EB91E8AE0A816B104A9F549E00D
:103E900050E0B4018091E9049091EA040E9407285F
:103EA0006091FC047091FD048823E9F08091E9049D
:103EB0009091EA04FC01E80DF91D808590E06817F7
:103EC000790709F0A4CF8EEE90E016DE8091FC0415
:103ED0009091FD04019699279093FD048093FC0432
:103EE0000F5F1F4F94CF8FEE90E006DE412C512CD8
:103EF0003201A12CB12C9ACF2AE0A216B1040CF405
:103F000095CF85CFE114F10409F46AC0680183E01C
:103F1000CC0CDD1C8A95E1F7812C912C540100E03A
:103F200010E098012E503B4FAE014F5F5F4F61E0B4
:103F300070E08091ED049091EE04A7DD811155C0F1
:103F400089819A812FEF821A920AA20AB20A20E985
:103F500082162FE5920621E0A206B1043CF06091A2
:103F6000FC047091FD048DEE90E034C0080F191F21
:103F70000A30110589F549E050E060E070E082EF19
:103F800094E00E9407286091FC047091FD0488234E
:103F9000F9F08091FA0490E06817790709F58EEE40
:103FA00090E0AADD8091E9049091EA04A70162EF14
:103FB00074E08C0D9D1D0E9413338091FC04909140
:103FC000FD04019699279093FD048093FC0408C09A
:103FD0008FEE90E091DDA0CF0A3011050CF4A1CF57
:103FE0008091E9049091EA0402C080E090E00F9093
:103FF0000F90DF91CF911F910F91FF90EF90DF9085
:10400000CF90BF90AF909F908F907F906F905F9078
:104010004F900895CF92DF92EF92FF920F931F93EC
:10402000CF93DF931F92CDB7DEB76C017B018A017E
:10403000452B31F0AB0160E070E0C801E4D7898323
:10404000B701C60159DD81110DC00115110551F0EF
:10405000B701C8018CDD811105C061E070E0CE01BF
:10406000019685DD0F90DF91CF911F910F91FF9009
:10407000EF90DF90CF900895CF92DF92EF92FF9272
:10408000CF93DF93CDB7DEB728970FB6F894DEBF96
:104090000FBECDBF6B01E12CF12CC982DA82EB821D
:1040A000FC822D833E834F835887AE014F5F5F4F65
:1040B00068E070E0AFDF28960FB6F894DEBF0FBE61
:1040C000CDBFDF91CF91FF90EF90DF90CF9008951B
:1040D0000F931F93CF93DF93EC018B01B3DC90938D
:1040E000EE048093ED04009739F0A801BE014DDC89
:1040F000EC01892B19F40BC0CDE1D3E08091ED04E4
:104100009091EE04E9DC1092EE041092ED04CE01E1
:10411000DF91CF911F910F9108958091ED049091BF
:10412000EE04D7CC2F923F924F925F926F927F9284
:104130008F929F92AF92BF92CF92DF92EF92FF92B7
:104140000F931F93CF93DF93CDB7DEB769970FB669
:10415000F894DEBF0FBECDBF2091F104222309F4F5
:1041600026C25D8B4C8B688B798B8A8B9B8B9A01DB
:10417000AB01BC01CE0101960E94711510E038E040
:10418000232E312C89819A81181619060CF00AC247
:104190001F861E861D861C8689819A81AC85BD85F9
:1041A000A817B9070CF0F3C1EB81FC812E853F8580
:1041B000E20FF31F208131813093E8042093E7045C
:1041C000848195819093E6048093E5044281538134
:1041D0005093E4044093E304468157815093E204F2
:1041E0004093E104820F931F9C01990F440B550BE0
:1041F0002E8B3F8B488F598FC12CD12C76012E8965
:104200003F89488D598DC216D306E406F50608F09D
:10421000A2C11F826091E7047091E8048B01072E10
:10422000000C220B330BD701C6010496A11DB11D52
:1042300080179107A207B30728F4E091E304F091F7
:10424000E4040AC0E4E0F0E0E61BF70BEC0DFD1D12
:104250008091E1049091E204E80FF91F4080512C15
:10426000612C712CD701C6010596A11DB11D8017C7
:104270009107A207B30728F4E091E304F091E40466
:104280000AC0E5E0F0E0E61BF70BEC0DFD1D8091A8
:10429000E1049091E204E80FF91F8081582AD701C8
:1042A000C6010696A11DB11D80179107A207B3078D
:1042B00028F4E091E304F091E4040AC0E6E0F0E0C1
:1042C000E61BF70BEC0DFD1D8091E1049091E204DB
:1042D000E80FF91F8081682AD701C6010796A11D42
:1042E000B11D80179107A207B30728F4E091E304FA
:1042F000F091E4040AC0E7E0F0E0E61BF70BEC0DF8
:10430000FD1D8091E1049091E204E80FF91F808186
:10431000782A4601570148E0840E911CA11CB11C6B
:10432000081519052A053B0508F4B4C0C016D106C6
:10433000E206F30638F48091E3049091E4048C0DD6
:104340009D1D09C0C601861B970B2091E104309189
:10435000E204820F931F68E070E009DCE091E7045B
:10436000F091E8049F010F2E000C440B550BD30174
:10437000C201880D991DAA1DBB1D281739074A07C0
:104380005B07C8F082169306A406B50638F42091A0
:10439000E3043091E404C601089609C0C1018E1BF4
:1043A0009F0B8C0D9D1D2091E1043091E204820F42
:1043B000931FB20199C08601BF01685071096C1941
:1043C0007D0982169306A406B50638F42091E3040D
:1043D0003091E404C601089609C0C1018E1B9F0BF1
:1043E0008C0D9D1D2091E1043091E204820F931FFA
:1043F000BEDB8091E7049091E804B101681B790B62
:10440000600F711F640D751D8091E1049091E204AD
:10441000AEDB8091E7049091E804AC01485051096B
:10442000FA01E01BF10BAC01092E000C660B770BB7
:1044300084169506A606B70638F42091E304309159
:10444000E404C60108960AC09101281B390BC90172
:104450008C0D9D1D2091E1043091E204820F931F89
:10446000AF0160E070E0CFD58F832091E7043091F9
:10447000E804A101421B530B9A01200F311F240DA8
:10448000351D40E050E0682F8091E1049091E204F6
:10449000A6D550C0C016D106E206F306C8F46C19C2
:1044A0007D098091E3049091E4048C0D9D1D5FDBF8
:1044B0008091E7049091E804B101681B790B6C0DC1
:1044C0007D1D640D751D8091E1049091E2040CC086
:1044D000C601861B970B2091E1043091E204B201E2
:1044E000685F7F4F820F931F42DB8091E7049091BA
:1044F000E804AC01092E000C660B770B84169506B8
:10450000A606B70638F42091E3043091E404C6010E
:1045100008960AC0D101A81BB90BCD018C0D9D1DB9
:104520002091E1043091E204820F931FA20160E028
:1045300070E069D58F8361E070E0CE01079617DBEC
:10454000182FB8E04B0E511C611C711CC40CD51CFB
:10455000E61CF71C54CE8C859D85880F991FED8134
:10456000FE81E80FF91F488959896A897B89808112
:1045700091810E94A3104C855D854F5F5F4F5D87E1
:104580004C878E859F8508969F878E8705CE2C89C0
:104590003D89488959896A897B89CE0101960E94A3
:1045A0007115F0CD112319F08C899D8903DB699673
:1045B0000FB6F894DEBF0FBECDBFDF91CF911F9134
:1045C0000F91FF90EF90DF90CF90BF90AF909F90B2
:1045D0008F907F906F905F904F903F902F900895B5
:1045E000CF93DF93EC01AC0160E070E0CB019ADD8A
:1045F000AE0161E070E080E090E0DF91CF9192CD7C
:10460000CF938091ED049091EE041FDAC82F8111B1
:104610000BC060E070E0CB010E94730B61E070E0C2
:1046200080E090E00E94730B8C2FCF9108950F9340
:104630001F9389019A01AB01BC018091ED04909117
:10464000EE044BDA1F910F9108953F924F925F92C3
:104650006F927F928F929F92AF92BF92CF92DF9292
:10466000EF92FF920F931F93CF93DF93CDB7DEB7F7
:1046700067970FB6F894DEBF0FBECDBF6C017B010C
:104680005A018091F104882331F08091F10488234C
:1046900009F45DC30AC061EF74E08091ED0490916C
:1046A000EE041CDA811153C3F0CF8091F0041A821A
:1046B0001982882309F46AC0E0E94E2EEFE55E2EE8
:1046C00066246394712C00E010E0980129523B4F5E
:1046D000AE014F5F5F4F61E070E08091ED0490911B
:1046E000EE04D3D9982E81114DC089819A81080F8B
:1046F000191F0115110509F445C081E0481A510838
:104700006108710839F46091FC047091FD048DEE2C
:1047100090E030C00A30110589F549E050E060E0D2
:1047200070E087ED94E073D46091FC047091FD0417
:104730008823F1F08091DF0490E068177907D9F4BD
:104740008EEE90E0D9D988E0E7EDF4E0DE0119962D
:1047500001900D928A95E1F72091FC043091FD04BF
:104760002F5F3F4F33273093FD042093FC040AC092
:104770008FEE90E0C1D91A82198204C00A30110567
:104780000CF4A3CF81E029813A8124C000E010E03D
:1047900078E0672E712C29E030E02C0F3D1F200FB0
:1047A000311FAE014F5F5F4FB301601B710B8091F2
:1047B000ED049091EE0469D9982E29813A818111F6
:1047C00008C0020F131F0115110519F0083011055B
:1047D00014F381E0121613060CF080E09110B4C2BD
:1047E000882309F4B4C28091F004811104C01986B1
:1047F0001A861B861C8689859A85AB85BC85803187
:10480000910508F0A4C2FC01EC5CFF4F0C949931B7
:10481000D6011696ED91FC91179780819181A28126
:10482000B38189839A83AB83BC83AE014F5F5F4FB3
:1048300064E070E085E190E07FC18D859E85D9D9E7
:10484000009731F42FEF3FEFA90161E070E00EC057
:10485000FC0180809180A280B380A701C501B401D2
:104860000E941C10A501940160E070E08DE190E0D1
:1048700069C28D859E85BDD9009721F42FEF3FEF4A
:10488000A90110C0DC018D909D90AD90BD90AD014F
:1048900095018401B701C6010E94B80CA5019401DD
:1048A000882319F061E070E002C060E070E08BE105
:1048B00090E048C28D859E859CD9009721F42FEF0A
:1048C0003FEFA9010FC0FC0181909190A190B190A0
:1048D000BF01A5019401C6010E94C10EA50194016A
:1048E000882319F061E070E002C060E070E08CE1C4
:1048F00090E028C2D6011496ED91FC9115970081A5
:104900001181F80182809380A080B18060E1462E01
:10491000512C612C712C49825A826B827C8288E0F6
:1049200090E0A0E0B0E08D839E83AF83B8879E01C6
:104930002F5E3F4FAE014F5F5F4F68E070E08091A8
:10494000ED049091EE0483D8882319F000E010E084
:10495000BBC089899A890897C9F7D801ED90FC9066
:10496000B8E0EB0EF11CEE0CFF1CEE0CFF1CC701B7
:104970000E94E6318C01892B49F349825A826B826D
:104980007C82C7010F2C000CAA0BBB0B8D839E836E
:10499000AF83B8879E012F5E3F4FAE014F5F5F4FE1
:1049A00068E070E08091ED049091EE0450D88111A0
:1049B0008BC089899A89089709F086C0D60112961A
:1049C000ED91FC9113974081518162817381D801EF
:1049D0004D935D936D937C931397448155816681CC
:1049E000778114964D935D936D937C9317974085D3
:1049F00051856285738518964D935D936D937C9375
:104A00001B9784859585A685B785F801848795874A
:104A1000A687B787108A118A128A138A84E090E0E9
:104A2000A0E0B0E0848B958BA68BB78B8091DC01E6
:104A30009091DD01A0E0B0E0808F918FA28FB38FC5
:104A4000C5010B2C000CAA0BBB0B848F958FA68F76
:104A5000B78FF401D801909680E090E08A159B050D
:104A600054F44191519160E070E04D935D936D93EA
:104A70007D930196F3CF9E012F5E3F4FA801B701B2
:104A80008091ED049091EE040E94271D81111CC0BD
:104A900089899A898E159F05B9F4A70160E070E0B5
:104AA000C801B1D28B8B9E012F5E3F4FAE014D5E90
:104AB0005F4F61E070E08091ED049091EE040E9400
:104AC000271D81E08093F004C80167960FB6F89423
:104AD000DEBF0FBECDBFDF91CF911F910F91FF9031
:104AE000EF90DF90CF90BF90AF909F908F907F908E
:104AF0006F905F904F903F900C947B328D859E8598
:104B0000AF85B8890097A105B10521F481E08093B4
:104B1000EF041DC16ED8009789F481E090E0A0E019
:104B2000B0E089839A83AB83BC83AE014F5F5F4F54
:104B300064E070E082E190E06DDA09C1BC01C60179
:104B40000E94C50A19821A821B821C82AE014F5F25
:104B50005F4F64E070E082E190E05CDA8111F7C0C1
:104B6000D5CFD6011496ED91FC9115970190F08167
:104B7000E02D008511858FEF89830115110509F45A
:104B800072C0D8016D907C90A280B38020E030E0AC
:104B900060E070E080E090E0861597050CF5F80184
:104BA000A281B381A20FB31F1296ED91FC911397CE
:104BB000EE0FFF1FEA0DFB1D0190F081E02D169610
:104BC0000D90BC91A02DEA9FA001EB9F500DFA9F84
:104BD000500D1124640F751F0196285F3F4FDCCFE5
:104BE00083E190E00E947C1D8111B1C0C12CD12CC9
:104BF000E12CF12CE614F7047CF5D8011296ED9126
:104C0000FC911397EC0DFD1D80809180A281B381F2
:104C1000AA0FBB1FAA0DBB1D2D913C9186819781C8
:104C2000289F2001299F500C389F500C1124B2015D
:104C3000C4010E94B71D382E920140E050E0698106
:104C4000C401CDD18983B8E0CB0ED11C31107FC017
:104C5000EFEFEE1AFE0ACECF61E070E0CE010196D2
:104C60000E94B71D74C060E070E083E190E00E9494
:104C70007C1D6DC040E050E060E070E081E190E0BC
:104C8000C9D9811164C0812C912C5401C501B40192
:104C90000E949F0C80911D04882321F0A701C5016B
:104CA000B40140DAA701C501B4010E949F0B8A94A8
:104CB00089288A288B2829F0812C912C54018394EF
:104CC000E5CF1092F1041092F0041092FD041092BE
:104CD000FC048091ED049091EE040E94741D37C095
:104CE00081E090E090931F0480931E0440E050E028
:104CF00060E070E086E190E01FCF81E0D5018C9309
:104D000026C08D859E850E94F91D009731F42FEFF6
:104D10003FEFA90161E070E013C0FC012081318107
:104D200042815381CA01B9012C8B3D8B4E8B5F8B25
:104D30000E947C102C893D894E895F8960E070E07B
:104D40008EE190E099D903C0C7010E94DA1D6796F1
:104D50000FB6F894DEBF0FBECDBFDF91CF911F918C
:104D60000F91FF90EF90DF90CF90BF90AF909F900A
:104D70008F907F906F905F904F903F900895CF926B
:104D8000DF92EF92FF92CF93DF93EC01C12CD12CF5
:104D90007601C701B6010E949F0CAE01C701B601A2
:104DA000C1D9AE01C701B6010E949F0B8091E904F1
:104DB0009091EA04009731F00E947B321092EA044D
:104DC0001092E904CA94CD28CE28CF2829F0C12C0E
:104DD000D12C7601C394DDCF8091F004882359F063
:104DE00040E050E060E070E084E190E013D9F82EFC
:104DF0001092F00401C0F12C8091F104882341F05D
:104E00001092F10481E090E09093DD018093DC0149
:104E10008091ED049091EE040E94771D8091ED0445
:104E20009091EE040E946C1D8F2DDF91CF91FF9029
:104E3000EF90DF90CF900895CF93DF93EC01AC011A
:104E400060E070E0CB010E94E214AE0161E070E02E
:104E500080E090E0DF91CF910C94E21460E070E08C
:104E6000CB010E944E1561E070E080E090E00C9470
:104E70004E15CF92DF92EF92FF920F931F93CF9335
:104E8000DF93EC016A017B0100E010E098010E94D1
:104E9000CC1001E010E020E030E0B701A601CE0127
:104EA0000E94CC10DF91CF911F910F91FF90EF9056
:104EB000DF90CF9008950E94BD1C68EE73E080E003
:104EC00090E00E94041880E090E0089526E040E021
:104ED00052EC61E070E089E294E00E94C21989E23C
:104EE00094E00E940C19892B29F089E294E00E9439
:104EF0002619F5CF80E090E00895AF92BF92CF924F
:104F0000DF92EF92FF920F931F93CF93DF9300D026
:104F1000CDB7DEB77A018901F9011182108289E2E9
:104F200094E069837A830E940C1969817A81892BC4
:104F300099F15B01DD24D39485E6C82E8091FE04AF
:104F4000811124C089E294E00E94261985369105DA
:104F5000A9F7D092FE04F501C1925F01F8018081AA
:104F60009181019691838083E9CF89E294E00E9448
:104F700026198F3FFFEF9F0749F0F50181935F01ED
:104F8000F80180819181019691838083F80180816D
:104F900091818E159F0548F380E090E00F900F906F
:104FA000DF91CF911F910F91FF90EF90DF90CF9005
:104FB000BF90AF9008950F931F93CF93DF93EA01B3
:104FC000890189E294E00E94F51AF801D183C08337
:104FD00080E090E0DF91CF911F910F910895DC0167
:104FE000A40FB51F240F351FAD01481B590B4217E5
:104FF000530738F4ED91E627F0E0E752FF4F649154
:10500000F3CF862F08959A01AB016FEFE8CFCF93CE
:10501000FC01E60FF71FE40FF51FC081F4DF91E0FC
:10502000C81390E0892FCF9108951F920F920FB669
:105030000F9211242F933F934F935F936F937F931E
:105040008F939F93AF93BF93EF93FF93809100054E
:1050500087FF05C010928500109284001BC020912C
:105060000005022E000C330B8091FF0490E02817FE
:10507000390784F480910005082E000C990BFC017F
:10508000EE0FFF1F8E0F9F1FFC01EF5FFA4F808115
:1050900086FD15C0809100058F5F809300052091EB
:1050A0000005022E000C330B8091FF0490E02817BE
:1050B0003907C4F4809100058C3064F113C08091ED
:1050C0000005082E000C990BFC01EE0FFF1F8E0F40
:1050D0009F1FFC01EF5FFA4F808160E08F730E9499
:1050E000DD18D8CF8091840090918500049680349B
:1050F0009C4918F480E49CE905C08091840090915B
:105100008500049690938900809388008FEF8093A8
:1051100000053BC0209184003091850080910005FE
:10512000082E000C990BFC01EE0FFF1F8E0F9F1F26
:10513000FC01EF5FFA4F81819281820F931F909360
:1051400089008093880080910005082E000C990B3F
:10515000FC01EE0FFF1F8E0F9F1FFC01EF5FFA4F48
:10516000808186FF12C080910005082E000C990BEB
:10517000FC01EE0FFF1F8E0F9F1FFC01EF5FFA4F28
:10518000808161E08F730E94DD18FF91EF91BF91E4
:10519000AF919F918F917F916F915F914F913F91CF
:1051A0002F910F900FBE0F901F901895FC019091BA
:1051B000FF049C30A0F481E0890F8093FF0490836A
:1051C000892F90E0FC01EE0FFF1F8E0F9F1FFC0147
:1051D000EF5FFA4F88EB9BE09283818308958FEF16
:1051E00080830895DF92EF92FF920F931F93CF93E6
:1051F000DF93EC01D62E7A01890188818C3008F08A
:105200006AC061E08D2D0E94A1188881E82FF0E02E
:105210009F01220F331FE20FF31FEF5FFA4F9D2D07
:105220009F732081207CD22ED92AD08260E272E046
:10523000AB014E195F0957FF02C04D5F5F4F559597
:10524000479555954795498340E659E09A01201BBB
:10525000310B37FF02C02D5F3F4F359527953595B0
:1052600027952A836CE00E943C319CE0899FB00125
:10527000112440E050E09A01260F371FF901EE0F8C
:10528000FF1F2E0F3F1FF901EF5FFA4F908196FD30
:1052900016C04F5F5F4F4C30510569F781110FC049
:1052A0001092800082E0809381001092850010921D
:1052B0008400B19A80916F00826080936F00E881D2
:1052C000F0E0CF01880F991FE80FF91FEF5FFA4F49
:1052D0008081806480838881DF91CF911F910F91BD
:1052E000FF90EF90DF90089520E639E040E252E031
:1052F00079CFFC0190819C3080F5818128E830E0F5
:10530000281B310987FD3395220F331F220F331FCE
:10531000621773077CF0828128E532E0281B31098F
:1053200087FD3395220F331F220F331F6217730738
:105330000CF49B0122503109220F331F4FB7F89410
:10534000892F90E0FC01EE0FFF1F8E0F9F1FFC01C5
:10535000EF5FFA4F328321834FBF0895AF92BF9220
:10536000CF92DF92EF92FF920F931F93CF93DF9331
:10537000EC01603282E078070CF03FC077FD06C098
:10538000653B71052CF064EB70E002C060E070E0FA
:10539000898128E830E05901A81AB10887FDB39443
:1053A000AA0CBB1CAA0CBB1C0B2C000CCC08DD08E7
:1053B000072E000C880B990B2A8108E512E0021BCE
:1053C000110927FD1395000F111F000F111F012E4A
:1053D000000C220B330B3F932F931F930F9314EB6F
:1053E000E12EF12C00E010E020E030E0A9010E9465
:1053F000251C0F900F900F900F90CE01DF91CF9151
:105400001F910F91FF90EF90DF90CF90BF90AF90E2
:1054100070CF8091550590E020915605821B91092F
:1054200008959091560580915505981750F4E92FED
:10543000F0E0E95AFA4F208130E09F5F90935605E3
:1054400002C02FEF3FEFC9010895E091560580910A
:105450005505E81730F4F0E0E95AFA4F808190E002
:1054600008958FEF9FEF08950895CF92DF92EF9206
:10547000FF920F931F93CF93DF937C01262F972FDB
:105480008A0180913105882391F0C62FD72F6E01B4
:10549000C40ED51ECC15DD0569F06991D701ED91DB
:1054A000FC910190F081E02DC7010995F3CF642FA5
:1054B000822FB2D1C801DF91CF911F910F91FF9040
:1054C000EF90DF90CF900895CF93DF931F92CDB7E9
:1054D000DEB76983209131052223D1F02091320576
:1054E000203240F021E030E0FC013383228380E071
:1054F00090E014C080913305E82FF0E0EC5CFA4FA7
:10550000998190838F5F809333058093320504C027
:1055100061E0CE01019680D181E090E00F90DF91B3
:10552000CF910895FC011382128288EE93E0A0E0EF
:10553000B0E084839583A683B7838CE593E0918361
:1055400080830895109256051092550510923305E8
:105550001092320585C0A2C0CB01BA01ACC081E077
:1055600080933105609354051092330510923205F3
:1055700008950F93062F21E04091320564E375E012
:1055800080915405F3D01092330510923205109299
:1055900031050F9108954F925F926F927F92AF9273
:1055A000BF92CF92EF92FF920F931F93CF93DF930F
:1055B0005C01F62ED42F28013901EE2011F1CFDF46
:1055C000CE2DC43008F0C3E0C150C0F0D501ED913C
:1055D000FC91B8E0CB9FC0011124A301920104C04B
:1055E00056954795379527958A95D2F7CA01B901FF
:1055F0000190F081E02DC5010995E6CF60E0C5017D
:10560000B8DF4D2FD13208F040E22C2D67E575E070
:105610008F2D64D01092560580935505DF91CF9160
:105620001F910F91FF90EF90CF90BF90AF907F9020
:105630006F905F904F900895CF92EF920F931F93CA
:10564000C22EE12C00E010E09801A5DF1F910F9120
:10565000EF90CF90089521E0EFCF85E295E062CF03
:105660001092E40581E08093E2051092E10561E08B
:1056700082E10E94DD1861E083E10E94DD18E9EB20
:10568000F0E080818E7F808380818D7F808388E4BD
:105690008093B80085E48093BC000895ECEBF0E0C3
:1056A00080818A7B808360E082E10E94DD1860E077
:1056B00083E10C94DD189B01AC0160E074E284EF9F
:1056C00090E0F9D5DA01C9014097A109B109B69571
:1056D000A795979587958093B8000895413208F073
:1056E00043C09091E4059111FCCF91E09093E405C3
:1056F0002093E2052FEF209377051092BC05240F2D
:105700002093BB059093E3059091E305880F892BC7
:105710008093E3058091E105813061F41092E10509
:105720008091E3058093BB008091BC0083FDF8CF9E
:1057300085EC01C085EE8093BC008091E40581304A
:10574000E1F38091BC05841710F44091BC052DEB6A
:1057500035E0FB01D9018A2F821B841718F48D9143
:105760008193F9CF842F089580E008950F934132FB
:1057700008F04AC09091E4059111FCCF32E03093DB
:10578000E4050093E2053FEF309377051092BC05E6
:105790004093BB05FB016DEB75E0DB013A2F361B37
:1057A000341718F431913D93F9CF1092E3053091FD
:1057B000E305880F832B8093E3058091E105813019
:1057C00061F41092E1058091E3058093BB00809124
:1057D000BC0083FDF8CF85EC01C085EE8093BC0052
:1057E000222321F08091E4058230D1F38091770566
:1057F0008F3F79F080917705803241F08091770575
:10580000803331F094E005C091E003C092E001C024
:1058100093E0892F0F91089540919905262F30E04C
:10582000240F311D21323105DCF42091E4052430B0
:10583000C9F4FC0180E090E0861758F43091990596
:105840002191DC01A556BA4FA30FB11D2C930196EF
:10585000F3CF80919905680F6093990580E00895D2
:1058600081E0089582E0089585ED8093BC008091E9
:10587000BC0084FDFCCF1092E405089585EC809374
:10588000BC001092E40508951F920F920FB60F927C
:1058900011242F933F934F935F936F937F938F9335
:1058A0009F93AF93BF93EF93FF938091B900887F4D
:1058B000803609F49DC070F5883209F45CC090F41C
:1058C000803109F455C038F4882309F4F3C08830D6
:1058D00009F44EC0F2C0883109F44DC0803209F499
:1058E0005EC0EBC0803409F469C050F4803309F421
:1058F00056C0883309F0E1C080937705BFDFDDC073
:10590000803509F44FC0883509F45DC0883409F04A
:10591000D4C0D2C0883909F4C3C0A8F4883709F4C8
:1059200067C038F4883609F463C0803709F460C072
:10593000C4C0883809F4B4C0803909F45FC0803825
:1059400009F0BBC05BC0803B09F482C038F4803AE8
:1059500009F466C0883A09F47BC0AFC0803C09F402
:10596000A3C0883C09F4A0C0883B09F486C0A5C048
:105970008091E30510C09091BC058091BB059817FC
:1059800070F5E091BC0581E08E0F8093BC05F0E0DE
:10599000E354FA4F80818093BB0085EC82C08093F2
:1059A00077058AC0E091BC0581E08E0F8093BC052D
:1059B0008091BB00F0E0E354FA4F80839091BC05E6
:1059C0008091BB056AC0E091BC0581E08E0F809399
:1059D000BC058091BB00F0E0E354FA4F80838091D6
:1059E000E205811169C081E08093E10584EA5DC030
:1059F00083E08093E40510927805CFCF80917805FD
:105A0000803208F04DC0E091780581E08E0F8093E0
:105A100078058091BB00F0E0E758FA4F8083BDCF56
:105A20002DDF80917805803230F4E0917805F0E048
:105A3000E758FA4F10826091780570E0E091DD053B
:105A4000F091DE0589E795E009951092780535C05B
:105A500084E08093E40510929A0510929905E091F4
:105A6000DF05F091E005099580919905811105C048
:105A700081E08093990510929B05E0919A0581E061
:105A80008E0F80939A05F0E0E556FA4F808180935F
:105A9000BB0090919A0580919905981708F47DCFE5
:105AA00085E88093BC0009C085EC8093BC0010920F
:105AB000E40503C010927705D7DEFF91EF91BF9107
:105AC000AF919F918F917F916F915F914F913F9196
:105AD0002F910F900FBE0F901F901895CF93DF93CB
